:020000040000FA
:040000008A010C283D
:08000800F0000308F10071088B
:100010008300F00E700E0900031383128B0185011B
:10002000860189019230880083168C018D018B0135
:1000300007309F0010308500860189010930880053
:1000400083120A16FB200A122D280A16F0210A1222
:100050000A1630200A12721A28280A1630200A12AC
:10006000721A25280A1600200C201820242054205B
:100070003C20602015212F214A21D2206121CA2055
:100080007312F311772148200A12721F2D287E085F
:10009000F8007F08F9005D280A16A6220A120A163F
:1000A00000200A12721C4F285D280A1616220A1216
:1000B0000A1630200A12721E58280A1630200A1218
:1000C000721E55280A1600200A12721C4C280A16A5
:1000D00054203C20602015212F214A21D22061216B
:1000E000D024CA207312F315772148200A12731BFB
:1000F0000C28721F5D287E08FA007F08FB00780834
:10010000FA027908FB02031CFA038E280A168E22D3
:100110000A120A1600200A12721889280A160020EC
:100120000A12721886280A1600200A1272185D2810
:100130000A160C201820242015212F214A21D22014
:100140006121CA200A12F21BBA28A30178087E0294
:10015000A40079087F02A500031CA403A0017A086B
:10016000A1007B08A2000A16E5227316F315772179
:100170000A1293287A08BA007B08BB000A164224A8
:100180000A123C08BF003D08C0003E08C1007808C4
:100190007E02BA0079087F02BB00031CBA030A166C
:1001A00042240A123C083F02BC003D084002BD0048
:1001B000031CBC033E084102BE00031CBD037316B2
:0A01C000F3110A1677210A129328A2
:1020000005108510051185110F30B800B80B062892
:102010007210051A72140800051485100511851137
:102020000F30B800B80B1228F210051AF21408008D
:1020300005108514051185110F30B800B80B1E2846
:102040007211051A72150800051485140511851101
:102050000F30B800B80B2A28F211051AF215080043
:1020600005108510051585110F30B800B80B3628FE
:102070007212051A721608000514851005158511CF
:102080000F30B800B80B4228F212051AF2160800F9
:1020900005108514051585110F30B800B80B4E28B2
:1020A0007213051A72170800051485140515851199
:1020B0000F30B800B80B5A28F213051AF2170800AF
:1020C00005108510051185150F30B800B80B66286E
:1020D0007310051A73140800051485100511851571
:1020E0000F30B800B80B7228F310051AF31408006B
:1020F00008150000000000000000081100000000AA
:102100000000000008150800881000000000000012
:10211000000088140000000000000800F5010830ED
:102120007502031908000310FF0D031899280812FF
:102130009A2808168420F50A8F28FE01FF01F50170
:10214000103075020319080084208819A92803108B
:10215000AA280314FF0DFE0DF50AA02878202030D0
:10216000FF008E200530FF008E201030FF008E20F3
:102170004430FF008E20080078202130FF008E20A0
:102180000530FF008E201130FF008E204430FF000C
:102190008E200800AE200818CB283830FF008E2093
:1021A0009D200800BC200818D3283830FF008E205E
:1021B0009D20A001A101A3017E08A4007F08A50025
:1021C0005030A200E522B430A8070318A70A270858
:1021D000FE002808FF0008000817EF2808138600F3
:1021E000FF30B800B80BF2288813FF30B800B80BE6
:1021F000F728881708003830EE200C30EE20063023
:10220000EE200800831203138030EE201430F40017
:102210002030EC20F40B0829C030EE201430F400FC
:102220002030EC20F40B102908008030EE20203004
:10223000EC202030EC204D30EC204F30EC204430AE
:10224000EC204530EC203A30EC20F21B2A295430A7
:10225000EC202C294430EC202030EC2008007318AE
:1022600038294430EC204130EC204C30EC203E2921
:102270002030EC204930EC204C30EC202D30EC208C
:10228000F21A45295630EC2047295230EC202030F4
:10229000EC2008002330EC2072185529F218582938
:1022A00072195B29F2195E2908003130EC20080010
:1022B0003230EC2008003330EC2008003430EC20C1
:1022C0000800C030EE205730EC204130EC20563072
:1022D000EC204530EC203D30EC207E08BA007F0831
:1022E000BB008C236E30EC206D30EC200800CA302F
:1022F000EE202030EC20731A8029F31986298329D7
:10230000F319B02989296930EC20DE294930EC2005
:10231000DE294430EC203D30EC203C08BF00A30017
:102320003D08C000A4003E08C100A5000130A00087
:102330008630A100A030A200E5222808B900FB23C6
:102340002C30EC202908B900FB232A08B900FB2314
:102350002B08B900FB232030EC202030EC200800B3
:102360005430EC203D30EC20013028020319CF29F5
:10237000BA012908BB008C23BA012A08BB008C23B0
:102380002C30EC20BA012B08BB008C23BA012C089E
:10239000BB008C232530EC202030EC2008003130AD
:1023A000EC203030EC203030EC202530EC20203098
:1023B000EC202030EC202030EC2008003D30EC20D8
:1023C0007E08BA007F08BB008C232030EC20203030
:1023D000EC202030EC202030EC202030EC200800D5
:1023E0000221C230EE204330EC204C30EC204F3044
:1023F000EC205330EC204530EC202030EC205430E1
:10240000EC204830EC204530EC202030EC205330DC
:10241000EC204830EC205530EC205430EC20543087
:10242000EC204530EC205230EC20D62A0221C2307C
:10243000EE204F30EC205030EC204530EC204E3078
:10244000EC202030EC205430EC204830EC2045309B
:10245000EC202030EC205330EC204830EC2055307C
:10246000EC205430EC205430EC204530EC2052303D
:10247000EC20D62A0221C030EE204330EC20483038
:10248000EC204130EC204E30EC204730EC20453041
:10249000EC202030EC205030EC204830EC204F3045
:1024A000EC205430EC204F30EC204430EC20453010
:1024B000EC205430EC204530EC204330EC205430FC
:1024C000EC204F30EC205230EC20D62A0221C130D3
:1024D000EE204330EC204830EC204130EC204E30F0
:1024E000EC204730EC204530EC202030EC205330FD
:1024F000EC204F30EC205530EC205230EC205330A3
:10250000EC202030EC204C30EC204930EC204730DF
:10251000EC204830EC205430EC20D62A0221C53083
:10252000EE205330EC204530EC205430EC202030AD
:10253000EC205330EC204130EC204D30EC2050307A
:10254000EC204C30EC204530EC20D62A0221C33060
:10255000EE205330EC204530EC205430EC2020307D
:10256000EC205A30EC204530EC205230EC204F303B
:10257000EC202030EC205330EC204130EC204D306A
:10258000EC205030EC204C30EC204530EC20D62AAA
:1025900002218730EE204530EC205230EC205230C2
:1025A000EC204F30EC205230EC2008008730EE2039
:1025B0005030EC204C30EC204530EC204130EC2009
:1025C0005330EC204530EC200800A901AA01AB01F2
:1025D000AC01B001B101AD012008EF002108AE004F
:1025E0002208AF00F312A601A701A801B201B301AE
:1025F0000130B400A01B052B0310B40DB30DB20DB8
:102600000310A20DA10DA00DFA2A20082302B50087
:1026100021082402B600031CB50322082502B700D6
:10262000031CB60320082302031C2E2B031D222BA0
:1026300021082402031C2E2B031D222B2208250215
:10264000031C2E2B3708A5003608A4003508A3006C
:102650003408A8073308A7073208A6070310A00C00
:10266000A10CA20C0310B20CB30CB40C031C052B70
:10267000F31E622BAD0A01302D020319552B0230D7
:102680002D020319522B03302D0203194F2B043056
:102690002D0203194C2B572B2808AC00572B280868
:1026A000AB00572B2808AA00572B2808A900053093
:1026B0002D0203195D2B6923F32A3008A700310886
:1026C000A80008002708B0002808B100F316692305
:1026D000F32A0310A50DA40DA30D2508B7002408A7
:1026E000B6002308B5000310A50DA40DA30D03101B
:1026F000A50DA40DA30D3508A3073608A4070318DC
:10270000A30A3708A5070318A40A2E08A1002F085A
:10271000A2006F08A00008007311B90127303A0227
:102720000319952B031CA12B992B10303B02031C82
:10273000A12B2730BA021030BB02031CBA03B90A1E
:102740008E2BB9080319A62B7315FB23B90103308F
:102750003A020319AE2B031CBA2BB22BE8303B0212
:10276000031CBA2B0330BA02E830BB02031CBA03C5
:10277000B90AA72B7319BF2BB9080319C12B7315FD
:10278000FB23B90100303A020319C92B031CD52BD6
:10279000CD2B64303B02031CD52B0030BA026430D1
:1027A000BB02031CBA03B90AC22B7319DA2BB9088E
:1027B0000319DC2B7315FB23B90100303A0203190E
:1027C000E42B031CF02BE82B0A303B02031CF02BFC
:1027D0000030BA020A30BB02031CBA03B90ADD2B6F
:1027E0007319F52BB9080319F72B7315FB233B0855
:1027F000B900FB230800003039020319242C0130F2
:1028000039020319272C0230390203192A2C03300C
:10281000390203192D2C043039020319302C0530EC
:1028200039020319332C063039020319362C0730CC
:1028300039020319392C0830390203193C2C0930AC
:10284000390203193F2C08003030EC2008003130E9
:10285000EC2008003230EC2008003330EC20080077
:102860003430EC2008003530EC2008003630EC2005
:1028700008003730EC2008003830EC2008003930F0
:10288000EC200800BC01BD01BE013A08F4003B0881
:10289000F5008030F600F7010F30B8000310F50D99
:1028A000F40D0318582C0310F60CF70CB8034E2C3B
:1028B000B80AB80B5C2C652C7530BD070318BC0A30
:1028C0009630BE070318BD0A592CA3013A08A4008C
:1028D0003B08A500A0017608A1007708A200E52228
:1028E000F4012908F5000310F50DF40D0310F50DA2
:1028F000F40D7408BA007508BB000310F50DF40D53
:102900000310F50DF40D0310F50DF40D7408BA075E
:102910007508BB070318BA0A0310F50DF40D740807
:10292000BA077508BB070318BA0AF4012A08F500AC
:102930000310F50DF40D7408BA077508BB070318EA
:10294000BA0A0310F50DF40D0310F50DF40D74081B
:10295000BA077508BB070318BA0A2B08BB07031888
:10296000BA0A0310BB0DBA0D3A16BA15CC248A1157
:102970000000F4000000BB0A0319BA0ACC248A1133
:102980000000F50000007408BD070318BC0A7508B4
:10299000BE070318BD0A08003A088A003B088200F7
:1029A000731301307E020319D82C031CE52CDC2C98
:1029B00054307F02031CE52C60207318ED2C02219B
:1029C00066226020731CE12CED2C6020731CED2C22
:1029D0000221662260207318EA2C02307E0203195D
:1029E000F42C031C022DF82C6C307F02031C022DEA
:1029F0003C20F21A080002213A2273173C20F21EF2
:102A0000FE2C08003C20F21E080002213A22731717
:082A10003C20F21A082D080019
:103000000000000000342B34003456340034823485
:103010000034AD340034D8340134033401342E3458
:1030200001345A34013485340134B0340134DB3492
:10303000023406340234303402345B3402348634D1
:103040000234B1340234DC34033406340334313412
:1030500003345C34033486340334B1340334DB3456
:10306000043405340434303404345A34043485349C
:103070000434AF340434D9340534033405342D34E6
:1030800005345734053482340534AC340534D63431
:103090000534FF34063429340634533406347D3481
:1030A0000634A7340634D1340634FA3407342434D1
:1030B00007344E34073477340734A1340734CA3424
:1030C0000734F43408341D3408344634083470347A
:1030D000083499340834C2340834EC3409341534D3
:1030E00009343E3409346734093490340934B9342E
:1030F0000934E2340A340B340A3434340A345D348B
:103100000A3486340A34AE340A34D7340B340034EB
:103110000B3429340B3451340B347A340B34A2344D
:103120000B34CB340B34F3340C341C340C344434B3
:103130000C346D340C3495340C34BD340C34E6341A
:103140000D340E340D3436340D345E340D34863483
:103150000D34AE340D34D6340D34FE340E342634F2
:103160000E344E340E3476340E349E340E34C6345F
:103170000E34EE340F3416340F343D340F346534CE
:103180000F348D340F34B4340F34DC341034033442
:1031900010342B341034523410347A341034A134B7
:1031A0001034C8341034F0341134173411343E3430
:1031B0001134653411348D341134B4341134DB34AA
:1031C0001234023412342934123450341234773425
:1031D00012349E341234C5341234EC3413341334A4
:1031E0001334393413346034133487341334AD3426
:1031F0001334D4341334FB341434213414344834A9
:1032000014346E34143495341434BB341434E2342E
:103210001534083415342E341534553415347B34B4
:103220001534A1341534C8341534EE34163414343E
:1032300016343A3416346034163486341634AC34CA
:103240001634D2341634F83417341E341734443458
:1032500017346A34173490341734B5341734DB34E8
:10326000183401341834263418344C341834723479
:10327000183497341834BD341834E234193408340F
:1032800019342D34193453341934783419349D34A5
:103290001934C3341934E8341A340D341A3433343D
:1032A0001A3458341A347D341A34A2341A34C734D8
:1032B0001A34EC341B3411341B3436341B345B3475
:1032C0001B3480341B34A5341B34CA341B34EF3414
:1032D0001C3414341C3438341C345D341C348234B3
:1032E0001C34A7341C34CB341C34F0341D34153456
:1032F0001D3439341D345E341D3482341D34A734FA
:103300001D34CB341D34F0341E3414341E343834A0
:103310001E345D341E3481341E34A5341E34C93449
:103320001E34EE341F3412341F3436341F345A34F2
:103330001F347E341F34A2341F34C6341F34EA34A1
:1033400020340E34203432342034563420347A344D
:1033500020349E342034C2342034E53421340934FE
:1033600021342D34213451342134743421349834AF
:103370002134BB342134DF34223403342234263464
:1033800022344A3422346D34223491342234B43419
:103390002234D7342234FB3423341E3423344134D2
:1033A00023346534233488342334AB342334CE348B
:1033B0002334F134243414342434383424345B3446
:1033C00024347E342434A1342434C4342434E73403
:1033D00025340A3425342C3425344F3425347234C2
:1033E000253495342534B8342534DB342534FD3484
:1033F0002634203426344334263465342634883445
:103400002634AA342634CD342634F034273412340A
:1034100027343534273457342734793427349C34CF
:103420002734BE342734E134283403342834253497
:103430002834473428346A3428348C342834AE3461
:103440002834D0342834F23429341434293437342D
:103450002934593429347B3429349D342934BF34F8
:103460002934E0342A3402342A3424342A344634C9
:103470002A3468342A348A342A34AC342A34CD3499
:103480002A34EF342B3411342B3432342B3454346B
:103490002B3476342B3497342B34B9342B34DA3440
:1034A0002B34FC342C341D342C343F342C34603415
:1034B0002C3482342C34A3342C34C5342C34E634EC
:1034C0002D3407342D3429342D344A342D346B34C3
:1034D0002D348C342D34AD342D34CF342D34F034A0
:1034E0002E3411342E3432342E3453342E3474347A
:1034F0002E3495342E34B6342E34D7342E34F8345A
:103500002F3419342F343A342F345B342F347B3436
:103510002F349C342F34BD342F34DE342F34FF3419
:1035200030341F34303440343034613430348134FA
:103530003034A2343034C3343034E33431340434DE
:1035400031342434313445343134653431348634C3
:103550003134A6343134C6343134E73432340734AC
:103560003234273432344834323468343234883494
:103570003234A8343234C9343234E934333409347F
:10358000333429343334493433346934333489346B
:103590003334A9343334C9343334E934343409345A
:1035A0003434293434344934343469343434893447
:1035B0003434A9343434C9343434E9343534083437
:1035C0003534283435344834353468343534873428
:1035D0003534A7343534C7343534E634363406341C
:1035E0003634253436344534363464343634843411
:1035F0003634A3343634C3343634E2343734023408
:1036000037342134373440343734603437347F34FE
:1036100037349E343734BE343734DD343734FC34F9
:1036200038341B3438343B3438345A3438347934F1
:10363000383498343834B7343834D6343834F534F0
:1036400039341434393433343934523439347134EC
:10365000393490343934AF343934CE343934ED34EC
:103660003A340C343A342B343A3449343A346834EA
:103670003A3487343A34A6343A34C4343A34E334EE
:103680003B3402343B3420343B343F343B345E34EF
:103690003B347C343B349B343B34B9343B34D834F6
:1036A0003B34F6343C3415343C3433343C345234FB
:1036B0003C3470343C348F343C34AD343C34CB3403
:1036C0003C34EA343D3408343D3426343D3445340A
:1036D0003D3463343D3481343D349F343D34BE3415
:1036E0003D34DC343D34FA343E3418343E34363420
:1036F0003E3454343E3472343E3490343E34AE342E
:103700003E34CC343E34EA343F3408343F3426343B
:103710003F3444343F3462343F3480343F349E3449
:103720003F34BC343F34D9343F34F734403415345B
:10373000403433344034513440346E3440348C346B
:103740004034AA344034C7344034E534413403347F
:103750004134203441343E3441345B344134793493
:10376000413496344134B4344134D1344134EF34AB
:1037700042340C3442342A344234473442346434C0
:103780004234823442349F344234BC344234DA34DA
:103790004234F734433414344334313443344F34F3
:1037A00043346C34433489344334A6344334C3340F
:1037B0004334E0344334FD3444341B34443438342B
:1037C000443455344434723444348F344434AC3447
:1037D0004434C9344434E6344534023445341F3467
:1037E00045343C3445345934453476344534933487
:1037F0004534B0344534CC344534E93446340634A9
:103800004634233446343F3446345C3446347934C9
:10381000463495344634B2344634CF344634EB34EF
:1038200047340834473424344734413447345D3412
:1038300047347A34473496344734B3344734CF343A
:103840004734EC344834083448342534483441345F
:1038500048345D3448347A34483496344834B23489
:103860004834CF344834EB344934073449342334B2
:103870004934403449345C344934783449349434DC
:103880004934B0344934CC344934E8344A3405340A
:103890004A3421344A343D344A3459344A34753434
:1038A0004A3491344A34AD344A34C9344A34E53464
:1038B0004B3400344B341C344B3438344B34543494
:1038C0004B3470344B348C344B34A8344B34C334C5
:1038D0004B34DF344B34FB344C3417344C343234F7
:1038E0004C344E344C346A344C3485344C34A1342A
:1038F0004C34BD344C34D8344C34F4344D3410345E
:103900004D342B344D3447344D3462344D347E3491
:103910004D3499344D34B5344D34D0344D34EC34C9
:103920004E3407344E3422344E343E344E345934FF
:103930004E3475344E3490344E34AB344E34C73438
:103940004E34E2344E34FD344F3418344F34343472
:103950004F344F344F346A344F3485344F34A034AD
:103960004F34BB344F34D7344F34F23450340D34E9
:10397000503428345034433450345E345034793425
:10398000503494345034AF345034CA345034E53465
:103990005134003451341B345134363451345134A1
:1039A00051346C34513487345134A1345134BC34E3
:1039B0005134D7345134F23452340D345234273424
:1039C0005234423452345D34523478345234923466
:1039D0005234AD345234C8345234E2345234FD34AB
:1039E000533418345334323453344D3453346734ED
:1039F0005334823453349C345334B7345334D13435
:103A00005334EC34543406345434213454343B3479
:103A1000543456345434703454348A345434A534C1
:103A20005434BF345434DA345434F43455340E340A
:103A3000553429345534433455345D345534773452
:103A4000553492345534AC345534C6345534E0349E
:103A50005534FA345634143456342F3456344934E9
:103A60005634633456347D34563497345634B13436
:103A70005634CB345634E5345634FF345734193485
:103A80005734333457344D345734673457348134D2
:103A900057349B345734B5345734CF345734E93422
:103AA0005834023458341C34583436345834503472
:103AB00058346A345834833458349D345834B734C5
:103AC0005834D1345834EA345934043459341E3417
:103AD000593438345934513459346B34593484346A
:103AE00059349E345934B8345934D1345934EB34C0
:103AF0005A3404345A341E345A3437345A34513414
:103B00005A346A345A3484345A349D345A34B7346B
:103B10005A34D0345A34EA345B3403345B341D34C1
:103B20005B3436345B344F345B3469345B34823419
:103B30005B349B345B34B5345B34CE345B34E73474
:103B40005C3400345C341A345C3433345C344C34CC
:103B50005C3465345C347E345C3498345C34B13429
:103B60005C34CA345C34E3345C34FC345D34153486
:103B70005D342E345D3447345D3460345D347934E3
:103B80005D3492345D34AB345D34C4345D34DD3443
:103B90005D34F6345E340F345E3428345E344134A0
:103BA0005E345A345E3473345E348C345E34A534FF
:103BB0005E34BE345E34D6345E34EF345F34083461
:103BC0005F3421345F343A345F3452345F346B34C1
:103BD0005F3484345F349D345F34B5345F34CE3425
:103BE0005F34E7345F34FF34603418346034313488
:103BF000603449346034623460347B3460349334EC
:103C00006034AC346034C4346034DD346034F53452
:103C100061340E346134263461343F3461345734B6
:103C200061347034613488346134A1346134B9341E
:103C30006134D2346134EA346234023462341B3485
:103C40006234333462344B346234643462347C34EE
:103C5000623494346234AD346234C5346234DD3459
:103C60006234F53463340E346334263463343E34C2
:103C70006334563463346E346334863463349F342F
:103C80006334B7346334CF346334E7346334FF349C
:103C90006434173464342F346434473464345F3408
:103CA0006434773464348F346434A7346434BF3478
:103CB0006434D7346434EF346534073465341F34E6
:103CC0006534373465344F346534673465347F3454
:103CD000653497346534AE346534C6346534DE34C7
:103CE0006534F63466340E346634263466343D3436
:103CF0006634553466346D346634853466349C34A9
:103D00006634B4346634CC346634E3346634FB341D
:103D10006734133467342A346734423467345A348E
:103D200067347134673489346734A0346734B83405
:103D30006734D0346734E7346734FF34683416347A
:103D400068342E346834453468345D3468347434EF
:103D500068348C346834A3346834BA346834D23468
:103D60006834E934693401346934183469342F34DF
:103D70006934473469345E346934753469348D3458
:103D80006934A4346934BB346934D3346934EA34D3
:103D90006A3401346A3418346A3430346A3447344B
:103DA0006A345E346A3475346A348C346A34A434C8
:103DB0006A34BB346A34D2346A34E9346B34003444
:103DC0006B3417346B342E346B3445346B345D34C0
:103DD0006B3474346B348B346B34A2346B34B9343D
:103DE0006B34D0346B34E7346B34FE346C341534BC
:103DF0006C342C346C3443346C3459346C3470343B
:103E00006C3487346C349E346C34B5346C34CC34BC
:103E10006C34E3346C34FA346D3411346D3427343B
:103E20006D343E346D3455346D346C346D348334BC
:103E30006D3499346D34B0346D34C7346D34DE3440
:103E40006D34F4346E340B346E3422346E343834C2
:103E50006E344F346E3466346E347C346E34933446
:103E60006E34AA346E34C0346E34D7346E34ED34CC
:103E70006F3404346F341B346F3431346F3448344E
:103E80006F345E346F3475346F348B346F34A234D6
:103E90006F34B8346F34CF346F34E5346F34FC345E
:103EA000703412347034283470343F3470345534E4
:103EB00070346C3470348234703498347034AF346D
:103EC0007034C5347034DB347034F23471340834F7
:103ED00071341E347134353471344B34713461347F
:103EE0007134773471348E347134A4347134BA340B
:103EF0007134D0347134E7347134FD347234133496
:103F00007234293472343F347234553472346C3420
:103F100072348234723498347234AE347234C434AD
:103F20007234DA347234F0347334063473341C343B
:103F3000733432347334483473345E3473347434C9
:103F400073348A347334A0347334B6347334CC3459
:103F50007334E2347334F83474340E3474342434E7
:103F600074343A34743450347434653474347B3477
:103F7000743491347434A7347434BD347434D33409
:103F80007434E8347434FE347534143475342A349B
:103F9000753440347534553475346B34753481342C
:02400E00323F3F
:00000001FF
